:100000000000012061AB020089AB02008BAB020053
:100010008DAB02008FAB020091AB0200000000002C
:10002000000000000000000000000000194D00006A
:1000300095AB020000000000394D000099AB0200B2
:1000400011AD0200452301009BAB0200E12201003B
:100050009BAB02009BAB0200EDAF0200D9B40200E3
:100060009BAB02009BAB02009BAB02005D23010037
:100070009BAB0200512301009BAB02009BAB020033
:1000800069230100994D00009BAB02009BAB02006D
:100090009BAB02009BAB02009BAB02009BAB020040
:1000A0009BAB02009BAB02009BAB02009BAB020030
:1000B0009BAB02009BAB02000000000000000000B0
:1000C0009BAB02009BAB02009BAB02009BAB020010
:1000D0009BAB02009BAB02009BAB02000000000048
:1000E0000000000000000000000000000000000010
:1000F0000000000000000000000000000000000000
:1001000000000000000000000000000000000000EF
:1001100000000000000000000000000000000000DF
:1001200000000000000000000000000000000000CF
:1001300000000000000000000000000000000000BF
:1001400000000000000000000000000000000000AF
:10015000000000000000000000000000000000009F
:10016000000000000000000000000000000000008F
:10017000000000000000000000000000000000007F
:10018000000000000000000000000000000000006F
:10019000000000000000000000000000000000005F
:1001A000000000000000000000000000000000004F
:1001B000000000000000000000000000000000003F
:1001C000000000000000000000000000000000002F
:1001D000000000000000000000000000000000001F
:1001E000000000000000000000000000000000000F
:1001F00000000000000000000000000000000000FF
:1002000010B5054C237833B9044B13B10448AFF350
:1002100000800123237010BDB00500200000000005
:100220008497050008B5034B1BB103490348AFF39E
:10023000008008BD00000000B40500208497050080
:10024000A3F5803A704700BF174B002B08BF134B34
:100250009D46FFF7F5FF00218B460F461348144AD1
:10026000121A49F063FB0E4B002B00D098470D4B40
:10027000002B00D098470020002104000D000D48FD
:10028000002802D00C48AFF3008049F07FFA20002C
:10029000290012F0CFF849F065FA00BF000008000D
:1002A000000000000000000000000120B005002058
:1002B000C4BF0020000000000000000000207047C4
:1002C00010B40024C48001605DF8044B02717047D3
:1002D000F0B5037983B001254FF0A04605FA03F38A
:1002E0002A2204468DF80720C6F80C352A460DF15F
:1002F0000701006800F068FF2379002705FA03F37F
:100300008DF80770C6F808352A460DF107012068F8
:1003100000F05AFF23798DF8077005FA03F3C6F849
:1003200008352A460DF10701206800F04DFF2379BA
:100330008DF8077005FA03F3C6F808352A460DF163
:100340000701206800F040FF2379F02205FA03F34B
:100350008DF80720C6F8083520680DF107012A46F8
:1003600000F032FF03B0F0BDF0B5037983B0012592
:100370004FF0A04605FA03F32B2204468DF8072020
:10038000C6F80C352A460DF10701006800F01CFF85
:100390002379002705FA03F38DF80770C6F80835AE
:1003A0002A460DF10701206800F00EFF23798DF831
:1003B000077005FA03F3C6F808352A460DF1070160
:1003C000206800F001FF23798DF8075005FA03F348
:1003D000C6F808352A460DF10701206800F0F4FE42
:1003E0002379402205FA03F38DF80720C6F8083573
:1003F00020680DF107012A4600F0E6FE03B0F0BDCB
:100400002DE9F0470446007982B001254FF0A0465F
:1004100005FA00F02A27BDF828A08DF80770C6F865
:100420000C05894617460DF107012A4620689846B3
:1004300000F0CAFE23794FEA292205FA03F38DF86A
:100440000720C6F808352A460DF10701206800F09C
:10045000BBFE23798DF8079005FA03F3C6F808353B
:100460002A460DF10701206800F0AEFE23794FEA1D
:10047000282205FA03F38DF80720C6F808352A4626
:100480000DF10701206800F09FFE23798DF80780A9
:1004900005FA03F3C6F808352A460DF1070120686E
:1004A00000F092FE23792B2205FA03F38DF8072042
:1004B000C6F80C352A460DF10701206800F084FECD
:1004C00023793A1205FA03F38DF80720C6F80835A8
:1004D0002A460DF10701206800F076FE23798DF899
:1004E000077005FA03F3C6F808352A460DF107012F
:1004F000206800F069FE23794FEA2A2205FA03F307
:100500008DF80720C6F808352A460DF10701206846
:1005100000F05AFE23798DF807A005FA03F3C6F818
:1005200008352A460DF10701206800F04DFE2379B9
:100530002C2205FA03F38DF80720C6F80C35206845
:100540000DF107012A4600F03FFE02B0BDE8F0873A
:100550002DE9F0430446007983B001254FF0A04611
:1005600005FA00F033278DF80770C6F80C058946A8
:1005700090460DF107012A4620681F4600F024FE30
:1005800023794FEA292205FA03F38DF80720C6F8EC
:1005900008352A460DF10701206800F015FE237981
:1005A0008DF8079005FA03F3C6F808352A460DF1D1
:1005B0000701206800F008FE23794FEA282205FA97
:1005C00003F38DF80720C6F808352A460DF1070118
:1005D000206800F0F9FD23798DF8078005FA03F310
:1005E000C6F808352A460DF10701206800F0ECFD39
:1005F00023793A1205FA03F38DF80720C6F8083577
:100600002A460DF10701206800F0DEFD23798DF800
:10061000077005FA03F3C6F8083520680DF10701E5
:100620002A4600F0D1FD03B0BDE8F0832DE9F0418A
:10063000044682B00068804D00F0E8FD22794FF05A
:10064000A04302F5E072032143F822104FF08062CC
:10065000C3F868170A26C3F8082545F00105C3F852
:100660000C254FF47A40A847013EFAD14FF0A04143
:100670004FF08063C1F808352379012202FA03F3B1
:100680008DF80720C1F80C3520680DF1070100F046
:100690009BFD96264FF47A40A847013EFAD1237974
:1006A00001224FF0A04102FA03F311208DF8070058
:1006B000C1F80C3520680DF1070100F085FD0A2610
:1006C0004FF47A40A847013EFAD1237901264FF032
:1006D000A04706FA03F33A228DF80720C7F80C3535
:1006E00032460DF10701206800F06EFD2379552296
:1006F00006FA03F38DF80720C7F80835206832465C
:100700000DF1070100F060FD0A274FF47A40A84779
:10071000013FFAD1237901264FF0A04806FA03F3EE
:1007200036228DF80720C8F80C3532460DF1070146
:10073000206800F049FD23798DF8077006FA03F36D
:10074000C8F8083532460DF10701206800F03CFD7D
:100750002046FFF7BDFD2046FFF706FE2379212244
:1007600006FA03F38DF80720C8F80C3532462068E6
:100770000DF1070100F028FD0A264FF47A40A84742
:10078000013EFAD1237901224FF0A04102FA03F38E
:1007900013208DF80700C1F80C3520680DF1070112
:1007A00000F012FD0A264FF47A40A847013EFAD124
:1007B0003346314620464FF4A072FFF7C9FE237935
:1007C000E68001254FF0A04705FA03F337228DF8A4
:1007D0000720C7F80C352A460DF10701206800F004
:1007E000F3FC23798DF8076005FA03F3C7F80835A1
:1007F0002A460DF10701206800F0E6FC23798DF808
:10080000076005FA03F3C7F808352A460DF107011A
:10081000206800F0D9FC2379292205FA03F38DF82A
:100820000720C7F80C3520680DF107012A4600F0B3
:10083000CBFC02B0BDE8F081E0CF0400F0B5037955
:10084000C18083B001254FF0A04705FA03F337229A
:1008500004468DF80720C7F80C350E462A460DF1E0
:100860000701006800F0B0FC2379321205FA03F3A7
:100870008DF80720C7F808352A460DF107012068D2
:1008800000F0A2FC23798DF8076005FA03F3C7F89E
:10089000083520680DF107012A4600F095FC03B0E9
:1008A000F0BD00BFF0B583B0013BBDF82040013C76
:1008B000144405460B44A4B29BB20094DDE90967D9
:1008C000FFF79EFD29794FF0A04201238B40C2F82B
:1008D000083528683A46314603B0BDE8F04000F0DC
:1008E00073BC00BF70B50379144D82B001224FF084
:1008F000A041044602FA03F310208DF80700C1F866
:100900000C3520680DF1070100F05EFC0A2645F069
:1009100001054FF47A40A847013EFAD132264FF440
:100920007A40A847013EFAD123794FF0A04203F55F
:10093000E073022142F8231002B070BDE0CF040042
:10094000F0B50379354E4FF0A04203F5E073032173
:1009500042F8231083B0044646F0010632254FF4D6
:100960007A40B047013DFAD1237901224FF0A041EE
:1009700002FA03F311208DF80700C1F80C35206846
:100980000DF1070100F020FC0A254FF47A40B04732
:10099000013DFAD12B46294620464FF4A072FFF7BD
:1009A000D7FD2379E78801254FF0A04605FA03F328
:1009B00037228DF80720C6F80C352A460DF10701BD
:1009C000206800F001FC23793A1205FA03F38DF850
:1009D0000720C6F808352A460DF10701206800F007
:1009E000F3FB23798DF8077005FA03F3C6F8083591
:1009F0002A460DF10701206800F0E6FB2379292241
:100A000005FA03F38DF80720C6F80C3520680DF1C0
:100A100007012A4600F0D8FB03B0F0BDE0CF040088
:100A200000220160027142718271704730B585B059
:100A300003239F21044600258DF80B1000680093C6
:100A4000012203AB0DF10B01ADF80C508DF80E50E7
:100A500000F0C0FBBDF80C209DF80E30A280A37101
:100A600005B030BD00B583B0B92301220DF10701F7
:100A700000688DF8073000F0A7FB03B05DF804FBB9
:100A800070B586B00126134B0593044600250DF181
:100A90000E0305A90068009604228DF80E5000F0A0
:100AA00099FB032320680093324604AB9F260DF187
:100AB0000F01ADF810508DF812508DF80F6000F056
:100AC00089FBBDF810209DF81230A280A37106B0FA
:100AD00070BD00BFAB01020370B584B00E0C4CBA00
:100AE000006800930325134603A904228DF80D60C6
:100AF000ADF80E408DF80C5000F06CFB04B070BDEA
:100B000070B584B00D0C4ABA00238DF80D50202624
:100B1000ADF80E20062504460DF10B010068009388
:100B200001228DF80C608DF80B50052600F052FB69
:100B3000012501E02CF07EFA00950DF10B032068F1
:100B40008DF80A6001220DF10A0100F043FB9DF8C7
:100B50000B3013F0020F4FF00100EBD00023009395
:100B60002068042203A900F035FB0526012501E0D9
:100B70002CF060FA00950DF10B0320688DF80A60E7
:100B800001220DF10A0100F025FB9DF80B3013F056
:100B9000010F4FF00100EBD104B070BD002B63D00A
:100BA0002DE9F04F044685B08846924699464FF0AD
:100BB000020B0126052528F0FF07A7EB08070023F5
:100BC00007F580774FEA184198FA98F000934FF0B4
:100BD000060C4F458DF80D10ADF80E004FF00102D8
:100BE00020688DF80CB00DF10B0128BF4F468DF831
:100BF0000BC000F0EFFA01E02CF01CFA00960DF1AA
:100C00000B0320688DF80A5001220DF10A0100F053
:100C1000E1FA9DF80B3013F0020F4FF00100EBD01A
:100C2000009720685346042203A900F0E1FA01E08E
:100C30002CF000FA00960DF10B0320688DF80A5095
:100C400001220DF10A0100F0C5FA9DF80B3013F0F6
:100C5000010F4FF00100EBD1B9EB0709B844BA44DA
:100C6000A9D105B0BDE8F08F704700BF10B50446AC
:100C70009388106861710021C4F80600E160638107
:100C80002161032201202AF08BFFA061204610BDC4
:100C900038B5417A4FF0A043012202FA01F1C3F8BE
:100CA0000815417A01F5E071032443F82140817A67
:100CB0008A40C3F80C25817A01F5E071002243F8DF
:100CC0002140C17A01F5E07143F821204379002BDE
:100CD00048D0012B0FD14FF040230360427AC3F874
:100CE00008250368827AC3F80C250368C27AC3F822
:100CF0001025037A0BB1002038BD03684FF0004285
:100D0000C3F824258379002BF5D1C279032AF2D8C0
:100D1000046816495200C4F854250268C2F810311C
:100D20000268C2F820310268C2F818310468402213
:100D3000C4F8042304680225C4F8045304684FF47B
:100D40000025C4F8045304680725C4F80055082496
:100D500081F803230C601A46194680692AF08EFF39
:100D6000012038BD024B0360B8E700BF00E100E09E
:100D700000300040C368002B59D010B5036984B01F
:100D8000044623B30268C168C2F844150268FF2B09
:100D900028BFFF23C2F8483501680022C1F850255A
:100DA0000168C1F834250168C1F838250168C1F827
:100DB00040250168C1F81821C26801681A44C26060
:100DC00002690120D31A2361086104B010BD426991
:100DD000002A2DD003A94069039301912CF026FD30
:100DE000039B019943B1134B4FF080525A6040BFAF
:100DF000BFF34F8FBFF36F8F20794FF0A0420123D5
:100E00008340C2F808350023E360A06903932BF008
:100E1000B5F9039B002BD8D0064B4FF080525A6097
:100E200040BFBFF34F8FBFF36F8F04B010BD70474B
:100E300003A9E1E700ED00E0704700BFF8B51646F2
:100E4000002A00F08F8004460F4680694FF0FF3182
:100E50001D462BF01FFB2CF035FB012D6061277127
:100E60005ED04149414822680023C0F81035C1F8DE
:100E70001035C1F81435C1F8043521684020C1F897
:100E8000183102214FF40023C2F80403C2F80413FE
:100E9000C2F80433237901204FF0A04200FA03F393
:100EA000C2F80C352268E66025612369E168C2F862
:100EB00044152268FF2B28BFFF23C2F8483521685C
:100EC0000022C1F850252168C1F834252168C1F8F5
:100ED00038252168C1F840252168C1F81821226908
:100EE0002168D21A2261E26885421344E3600861F6
:100EF00000D0F8BD2268D2F81831002BFBD023793E
:100F000001254FF0A04205FA03F3C2F8083500238B
:100F1000A069E3601A4619462AF0B0FE2846F8BDDB
:100F200023681349D3F80805104F0F4A41EA0021FE
:100F3000C7F8101503F114000E49C2F81015C2F8D5
:100F40001405C2F8045522680027C2F81871402021
:100F500002214FF40022C3F80803C3F80813C3F8B2
:100F6000082397E71046F8BD00F0014000600040FC
:100F700001000300006100402DE9F042044689466B
:100F800080694FF0FF3115461F462BF083FA3E4A29
:100F90003E48236884F8049000216161C0F8101570
:100FA000C2F81015C2F81415C2F8041522684FF4DF
:100FB000002040264FF0020CC2F81811C3F8046359
:100FC000C3F804C3C3F804032368C3F808632368A1
:100FD000C3F808C32368C3F80803237901224FF03C
:100FE000A04002FA03F3C0F80C352368E1602161E8
:100FF000C3F844552368C3F848752368C3F85015EF
:101000002368C3F834152368C3F838152368C3F878
:1010100040152368C3F8181123681A612268D2F8B2
:101020001831002BFBD00023C2F844352268069902
:10103000C2F848352268C2F850352268C2F8341523
:1010400022680799C2F838152268C2F8403522682C
:10105000C2F81831236801221A612268D2F81831C7
:10106000002BFBD0237901254FF0A04205FA03F3B2
:10107000C2F808350023A0691A4619462AF0FEFD79
:101080002846BDE8F08200BF00F00140006000404B
:101090002DE9F0420446894680694FF0FF3115463C
:1010A0001F462BF0F7F93E4A3E48236884F8049027
:1010B00000216161C0F81015C2F81015C2F81415AE
:1010C000C2F8041522684FF4002040264FF0020CAD
:1010D000C2F81811C3F80463C3F804C3C3F80403C7
:1010E0002368C3F808632368C3F808C32368C3F8F8
:1010F0000803237901224FF0A04002FA03F3C0F85D
:101100000C352368E1602161C3F844552368C3F8B6
:1011100048752368C3F850152368C3F8341523684D
:10112000C3F838152368C3F840152368C3F81811AD
:1011300023681A612268D2F81831002BFBD0069B75
:10114000C2F844352368079AC3F84825226800236B
:10115000C2F850352268C2F834352268C2F83835F2
:101160002268C2F840352268C2F81831236801228B
:101170001A612268D2F81831002BFBD0237901259F
:101180004FF0A04205FA03F3C2F808350023A06926
:101190001A4619462AF072FD2846BDE8F08200BFC3
:1011A00000F001400060004030B44FF0A04402F570
:1011B000E0750160032301210271914044F825305C
:1011C000C4F8081530BC704713460A460179006818
:1011D000FFF734BE30B583B015460093069C0A462F
:1011E0002B46017900680194FFF7C6FE03B030BDBD
:1011F00030B583B015460093069C0A462B4601790C
:1012000000680194FFF744FF03B030BD0379012269
:101210004FF0A04102FA03F31046C1F808357047B9
:1012200030B4274A274DD2F80C4524F00104C2F807
:101230000C45D2F80C4544F00104C2F80C454FF4BB
:101240007A7303FB01F3D2F80C15DB0321F04001A4
:10125000C2F80C15A5FB0343D2F80C15C2F80C1507
:101260009B09013B4FF080440121C2F80435C2F8CC
:101270000815D4F800344FF0FF32DD07C4F800241D
:1012800011D49C070CD45A0711D41D0711D4DC03C8
:1012900011D49A0311D413F4002F0CBF0821072195
:1012A00030BC01607047002130BC016070470221F2
:1012B000F6E70321F4E70421F2E70521F0E700BF98
:1012C00000000140D34D6210014B01221A607047AB
:1012D00000000140024B034AC3F80026704700BFDC
:1012E000000001403546526E08289ABF024B53F861
:1012F00020000248704700BF54D00400E8CF04002B
:101300000A4A0123C2F80435BFF36F8FBFF34F8F32
:101310000160D2F80034002BFBD00023C2F8043562
:10132000BFF36F8FBFF34F8F704700BF00E00140E6
:10133000C1600274704700BF70B54FF0A045032331
:101340004FF4806684B00446C5F828373220C5F8CB
:1013500008652BF06FFEC5F80C6505202BF06AFEC2
:10136000C5F80865322001252BF064FE217CE06879
:1013700000950DF10F03152200F0BCF905202BF0AC
:1013800059FE0095217CE0680DF10F03A72200F0C3
:10139000B1F905202BF04EFE0095217CE068064B4C
:1013A000EC2200F0D1F90095217CE068034BFA2291
:1013B00000F0CAF904B070BD78D0040079D0040000
:1013C00070B50C4686B000260A2205460B46E0683A
:1013D000097C00923246049600F08CF928B1284628
:1013E0002E606E602E8106B070BDA378627913F016
:1013F0000F0320D0E378A079217964788DF8144028
:1014000002F00F0203F00F0440EA022041EA042137
:101410009A11012403ABADF80E008DF81020ADF841
:101420000C108DF8154003CB1B88286028462B81B3
:10143000696006B070BD11110F29DBD103938DF8DF
:101440001030ADF8143003ABEDE700BF38B50446FB
:101450000D4692E80300002304F10C02A56082E827
:1014600003000322A362194601202AF099FB606061
:10147000204638BD437C4FF0A04203F5E07340F2B4
:101480000C6142F82310037C03F5E07342F823104B
:10149000836873BBC2684FF04023012A036035D0D4
:1014A000022A2DD032B3427CC3F808250368027C9F
:1014B000C3F80C2502680023C2F85C310268C2F848
:1014C00004310268C2F860310268C2F8243102684F
:1014D000C2F84C310268C2F848310268C2F8503193
:1014E00002680621C2F8001540681A4619462AF01B
:1014F000C5BB70474FF0CC72C3F824250368D2E710
:101500004FF0C862C3F824250368CCE74FF080622F
:10151000C3F824250368C6E7F0B4044600689DF8C4
:101520001050C0F888152068012101622068C0F8B9
:1015300034252268C2F8383523681960236802E030
:10154000D3F824211AB9D3F84C21002AF8D000226C
:101550002948C3F84C2146682268284FA66206E055
:10156000D2F8241139B943689B1BBB422BD8D2F85F
:101570005C31002BF4D00023C2F85C319DB12368AC
:1015800001225A612268D2F80431002BFBD00023DB
:10159000C2F804312368D3F8240110B10020C3F845
:1015A0002401F0BC70472368D3F82421002AE7D136
:1015B0000122DA612268D2F84831002BFBD00023E7
:1015C000C2F84831E6E74FF040234FF0A045D3F88A
:1015D0000065C2F80015637C03F5E0730C2245F842
:1015E0002320237C03F5E073012045F823202368A2
:1015F000C3F80065F0BC7047001000E0E87402001A
:10160000F0B4044600689DF81050C0F888152068B2
:10161000012101622068C0F844252268C2F84835DB
:1016200023689960236802E0D3F824211AB9D3F81B
:101630005021002AF8D000222C48C3F850214668D7
:1016400022682B4FA66206E0D2F8241139B943680C
:101650009B1BBB4230D8D2F86031002BF4D0002362
:10166000C2F86031C5B1236801225A612268D2F8FC
:101670000431002BFBD00023C2F804312368D3F8D7
:10168000240138B10020C3F824012368D3F8C4240E
:10169000C3F8C424F0BC70472368D3F82421002A7F
:1016A000E2D10122DA612268D2F84831002BFBD066
:1016B0000023C2F84831E1E74FF040234FF0A04546
:1016C000D3F80065C2F80015637C03F5E0730C22C3
:1016D00045F82320237C03F5E073012045F82320FF
:1016E0002368C3F80065F0BC704700BF001000E03D
:1016F000E8740200F0B585B0044600270D46406846
:101700008DF80F204FF0FF311E462AF0C3FE294608
:101710000DF10F02204600970123FFF771FF4FF0F4
:10172000010C0A9BCDF800C0324629462046FFF73F
:10173000F3FE3B4605463A46606839462AF09EFA73
:10174000284605B0F0BD00BF2DE9F04182B0044647
:10175000DDF8208040681E4617460D464FF0FF31E9
:101760002AF098FE277531464246012604F11500FD
:1017700048F0B4F8294608EB060304F114022046A9
:101780000096FFF73DFF00230246194660681446A5
:101790001A462AF073FA204602B0BDE8F08100BF75
:1017A0000368D3F800253AB10021C3F80015036897
:1017B000D3F80025002AF8D14FF0A0430222C3F845
:1017C0001827C3F81C27704730B583B02CF0B0FA47
:1017D000002504462B462A464068009503212CF03C
:1017E00069FA4FF0A0434FF48032C3F80825257200
:1017F00003B030BD10B5044682B000220648216017
:10180000227223460090114604482CF007FA6060CB
:10181000204602B010BD00BFC91700007CD00400F4
:101820002DE9F0414FF0A04603234FF48037C6F86E
:101830004037C6F808750368D3F89830012B82B09A
:1018400002D0057A044615B102B0BDE8F0810095DA
:101850002B461922042140682CF02CFAD4F804807D
:101860002BF0A4FA2B4602460095404601212CF0AD
:1018700021FA0123C6F80C75237202B0BDE8F0818D
:101880000368D3F89830012B25D070B5057A82B063
:1018900004460DB102B070BD0F4A00958902A2FB4B
:1018A000013292092B46042140682CF003FA666845
:1018B0002BF07CFA2B4602460095304601212CF095
:1018C000F9F94FF0A0424FF480310123C2F80C1512
:1018D000237202B070BD7047D34D6210F0B4194C42
:1018E00003460D4607CC1D60A678C3F80D10C3F85B
:1018F00011202188C3F8090000224FF47A7543F6BD
:1019000098244FF0A060C3E92854C3E92522012799
:10191000C3F80500A3F8151002206321C3F8AC003A
:101920001F71DE75A3F8B01083F84C20A3F8902047
:1019300083F8922083F89C20C3F8A8201846F0BCB6
:10194000704700BF84D0040084B02DE9F84390F8BC
:1019500090509DF88390BDF88260BDF880800A3574
:1019600000EBC50E04469EF804C054F8357009A873
:10197000CC4580E80E0076BA9DF8823003D19EF8FF
:1019800005209A421AD000F03FFE94F890300133BF
:10199000DBB2082B0DD803F10A0284F89030D30093
:1019A000E218E7509680A2F80680BDE8F84304B03C
:1019B0007047002384F890305023F1E7BEF80630DA
:1019C0004345E0D11A9B44F83530EEE7F0B590F886
:1019D000B03089B0632B04466E4601AD30D1002390
:1019E000284984F8B0302068FFF78AF831464FF470
:1019F0008173F126042228468DF80060ADF802308C
:101A0000264647F06BFF94F8B01056F8940B01F29D
:101A1000F63104232A460903FFF7C0F831461C2299
:101A2000284647F05BFF94F8B010206801F2F631C9
:101A300009032A4604311C23FFF7B0F809B0F0BDB2
:101A40004FF48173314604222846F027ADF8023066
:101A50008DF8007047F042FF94F8B010206801F252
:101A6000F63109032A460423FFF798F894F8B010DA
:101A70000131C9B2092984F8B010B0D801F2F631A9
:101A80000903B0E700603F0090F8B13010B504469C
:101A90001BB9002384F8B13010BDFFF797FF002376
:101AA00084F8B13010BD00BF70B590F8B010632954
:101AB00088B0044610D001F2F63154F8940B0903B3
:101AC00001AA1C230431FFF707F8204601A91C22B4
:101AD00047F004FF08B070BD1A4E002503E00A2D40
:101AE00006F5805629D004230DEB03022068314609
:101AF000FEF7F2FF04220DEB0201684647F0EEFE0E
:101B00009DF80030F12BEAB205F10105E7D1BDF8EF
:101B10000230B3F5817FE2D1254684F8B02055F834
:101B2000940B311D1C2301AAFEF7D6FF284601A9FC
:101B30001C2247F0D3FE08B070BD2046FFF746FFD9
:101B400008B070BD00603F0038B504464868012108
:101B5000B0F9005029F0AAFF002872D194F8321091
:101B600094F83120B1FBF2F305EB852502FB13134A
:101B7000514A6D00DBB282FB051204EB8301ED17C5
:101B8000C5EBA215013384F83230CD6194F83020D2
:101B900094F831108A4203D00132D1B284F8301067
:101BA000D4E90752D4E909032A440244E06A9FEDCC
:101BB000437A1A444FF41673024492FBF1F203FB8A
:101BC00002F3002BB8BF03F2FF339B1203EB430376
:101BD000580007EE900AF8EEE76AB0F5486FC6EED7
:101BE000877AC4ED0D7A06DD41F2350398422BDD8C
:101BF0006420A06301E00020A063A17E627EB1FBAF
:101C0000F2F302FB1313DBB204EB83020133A3767E
:101C10005060237E627E9A421CBF0133237694F883
:101C20003F300133DBB2052B84F83F3005D929F072
:101C300081FD002384F83E3038BDBDE8384029F0EE
:101C400097BF2CF081F889E7A0F548604AF026FCA0
:101C500015A3D3E900234AF08BFC194B00224AF06C
:101C6000B1FD9FED131B41EC100B45F0C1FB154B73
:101C700051EC100B00224AF0C5FA02460B46002038
:101C800011494AF09FFD02460B4600200E494AF0DA
:101C9000B7FA4AF045FFC0B2642828BF6420A063A9
:101CA000ABE700BFAFF300802FDD24068195FB3F3B
:101CB0000000000000001640D34D621000007A447E
:101CC00000B08D400000F03F00405A40037803B15F
:101CD0007047024B01461868FFF736BFCC0500205D
:101CE00070B40E4E00224FF4A06400254FF0FF3177
:101CF0003060048304864563C0E9022270BCC0E9F9
:101D00000422C0E90822C0E90A2242608276C26148
:101D100080F83220C2638163704700BFCC05002089
:101D20004FF0A0430022C3F84C27C3F83027D3F864
:101D300010250649D2044CBF4FF440324FF4003214
:101D4000C3F830270C20024A29F06CB8A4D0040054
:101D50005522010010B5174B17491B6884B0044683
:101D60006846009329F092FCB0B9144B93E8070041
:101D700001AB03C301A900201A7029F02BFEA8B9FA
:101D80000121204629F092FE68B9A01C012129F00A
:101D90008DFE20B904B010BD2BF0D6FFE5E72BF087
:101DA000D3FF04B010BD2BF0CFFFEEE72BF0CCFF3C
:101DB000E6E700BF94D00400CD1C000098D00400DA
:101DC0004FF0A042D2F810356FEA133303F001034D
:101DD00080F83C30D2F8103590F83E206FEAD343BB
:101DE00003F0010380F83D3002B1704710B504469E
:101DF000FFF7B0FF0123E387BDE8104029F0B8BE2C
:101E00002DE9F0478368B04D8B428ABF01F18072A3
:101E1000CB1AD31AC3F309028A4288BF01F1FF111A
:101E2000044688BF01F57F41980A891AD4E9062340
:101E3000D4E904671218E5FB006743F10003C4E925
:101E40000623A160A14A44F69463C4E904673046BE
:101E500039464AF085FE9D4A44F6946303FB00F33D
:101E600002FB0131A0FB02230B44964277EB0303F4
:101E70008246B8BF00F1FF3A944A44F69461504656
:101E800001FB0AF3C11702FB0131AAFB02230B4439
:101E9000B6EB020867EB0309B8F1000F79F1000314
:101EA00003DAD8F1000869EB4909894A40F2463360
:101EB000404649464AF054FE7FA3D3E90023054635
:101EC0000F46404649464AF04BFE3B012A01521B51
:101ED00043EA157363EB070706469300BF00F61A43
:101EE0008C4647EA927740464946794A40F2463363
:101EF0006CEB07074AF034FE76484FF00D0C0CFBF4
:101F000006FCA6FB008900FB07C7B944B2EB08003A
:101F100063EB09016AA3D3E900234AF021FE0AF525
:101F20002F2A6D49DFF8D8E16C4B6D4ADFF8D4C138
:101F30006C4F0AF66C2AA1FB0A81C90B0EFB01AAA1
:101F40004FEA9A0EA3FB0E830AEBD323A2FB0E8E5D
:101F5000A3EBDE134FEA1A1EACFB0EECA3EB1C1333
:101F6000DFF8A4C1A7FB03E7ACFB03EC0AEBDC3A08
:101F70004FEA930CDB1B07EB5307A2FB0CC2AAEB47
:101F8000D21A40F26D133A0A03FB12AA0AEB8A0C2A
:101F9000554BDFF860E10CF1020CA3FB0C23DB09CD
:101FA00003EBC30202EB02120232AEFB02E24FF479
:101FB000C87840F2F95EF44508FB01F194BF0333A1
:101FC000093B01EB1721022B98BF01310FB2DBB2A5
:101FD0000AF1010A022B98BF013FAAEB9202002FDF
:101FE0002180A370E2705FFA82FA5ADB3F4AF91748
:101FF00082FB07C2C1EBE2113D4A022B02FB0177D3
:1020000038D903EBC3033B4A03EB03136FF4E47CBF
:102010006344A2FB03239B08DFF8D0C00AF1FF3A18
:1020200040F26D1202FB07A202EB9702ACFB07C75E
:10203000A2EB5712304F134407FB0133A3F52F23B4
:10204000A3F66C22111D20DB2C4AA3F66823A2FB09
:102050000312991A02EB51029208C2EBC2029B1AB8
:10206000DBB2002B08BF072323716571A671E071F5
:10207000BDE8F08703EBC30202EB02121D4B02F234
:102080006352A3FB02329308C6E71C4BA3FB021367
:10209000D11A03EB51039B08C3EBC303D31ADBB282
:1020A000DFE712496FF4C77807EB080281FB02C132
:1020B000D217C2EBE1119FE7005847F80D0000006E
:1020C00000CA9A3B0000000000CA9A3B00004F91F2
:1020D00000A0B830005847F8BD066B397F206B3937
:1020E000D97CC65961F31967D7802BD61F85EB5170
:1020F00070FEFFFFCDCCCCCCB13A02002549922432
:102100004FC5FDFF41D672001F2BD3E570B58AB0D5
:10211000A1F26C719DF83C600691013A9DF8401067
:10212000059204469DF84420049300254FF0FF33A8
:1021300001A8CDE90216089507950192129D099311
:1021400047F0D4FC064EA560A0FB062306FB013336
:10215000C4E9042329462046FFF752FE0AB070BDA9
:1021600000CA9A3B407928B10C2802D0431E0A2BA2
:1021700002D870470C2070470C38C0B2704700BFBF
:10218000437913B1013B0A2B05D8064B06480029B9
:1021900018BF18467047054B0548002918BF184658
:1021A000704700BFB0D00400ACD00400A8D0040039
:1021B000B4D00400024B827853F82200704700BF6D
:1021C00064000020024B027953F82200704700BFE0
:1021D00024000020024B027953F82200704700BF10
:1021E00004000020024B027953F82200704700BF20
:1021F000440000204FF0A0430322C3F83827C3F85F
:102200005827C3F85C270268012A4FF480404FF436
:1022100080010BD0022A1BD08AB14FF40002C3F810
:102220000C05C3F80C15C3F80C2570474FF40002D9
:10223000C3F80C05C3F80815C3F8082570474FF418
:102240000002C3F80805C3F80815C3F8082570474D
:102250004FF40002C3F80C05C3F80C15C3F80825A9
:10226000704700BF012901604FF0A0434FF4804048
:102270000DD0022921D0A9B14FF480014FF4000202
:10228000C3F80C05C3F80C15C3F80C2570474FF4C0
:1022900080014FF40002C3F80C05C3F80815C3F819
:1022A000082570474FF480014FF40002C3F8080579
:1022B000C3F80815C3F8082570474FF480014FF4A0
:1022C0000002C3F80C05C3F80C15C3F808257047C5
:1022D0000368022B30B405D0032B27D0012B13D079
:1022E00030BC70474FF0A04301254FF480444FF4B9
:1022F00080014FF400020560C3F80C45C3F80815CF
:10230000C3F8082530BC70474FF0A04300254FF4B8
:1023100080444FF480014FF400020560C3F8084583
:10232000C3F80815C3F8082530BC70474FF0A04328
:1023300002254FF480444FF480014FF40002056001
:10234000C3F80C45C3F80C15C3F8082530BC70471A
:102350000068704703684360704700BF43680360CC
:10236000012B11D0022B2DD0EBB14FF0A0434FF435
:1023700080404FF480014FF40002C3F80C05C3F80D
:102380000C15C3F80C2570474FF0A0434FF4804064
:102390004FF480014FF40002C3F80C05C3F8081590
:1023A000C3F8082570474FF0A0434FF480404FF426
:1023B00080014FF40002C3F80805C3F80815C3F8FC
:1023C000082570474FF0A0434FF480404FF4800140
:1023D0004FF40002C3F80C05C3F80C15C3F8082528
:1023E000704700BF0368022B30B405D0032B27D001
:1023F000012B13D030BC70474FF0A04303254FF49E
:1024000080444FF480014FF400020560C3F80C458E
:10241000C3F80C15C3F80C2530BC70474FF0A0432F
:1024200002254FF480444FF480014FF40002056010
:10243000C3F80C45C3F80C15C3F8082530BC704729
:102440004FF0A04301254FF480444FF480014FF436
:1024500000020560C3F80C45C3F80815C3F8082549
:1024600030BC70470368022B05D0044A0448032B94
:1024700008BF104670470348704700BF48D20400A9
:1024800040D2040044D204000368032B9ABF024ADE
:1024900052F823000148704760D204004CD2040077
:1024A000034B1868A0F10100B0FA80F040097047B2
:1024B000E8BF070003480368012B00D170470121E2
:1024C000FEF71EBFE8BF0700BFF34F8F0549064B5D
:1024D000CA6802F4E0621343CB60BFF34F8F00BFC2
:1024E000FDE700BF00ED00E00400FA0510B582B082
:1024F00004460092184622460B461821FFF7FAF8C8
:10250000003818BF012002B010BD00BF10B582B066
:1025100004460092184622460B461821FFF714F98C
:10252000003818BF012002B010BD00BF20B1034B1E
:10253000800143F001031847704700BF70D20400C8
:1025400030B4002200250824C5644465016030BC15
:1025500042714264A0F84820704700BFF8B50446B5
:10256000254B2168254A2648A3620125102304F142
:102570000806244FE1602263A383E062257430469D
:10258000657544F007FD2F434FF44860B847206855
:10259000FFF706F92068FEF76DFF304644F024FD92
:1025A00010B100236371F8BD4FF44860B84730465E
:1025B00044F02EFD4FF44860B8473146284644F0B9
:1025C00099FC4FF44860B84720464FF4027340F836
:1025D000383F314644F084F832462946284644F0D4
:1025E00033FD3146284644F0A9FD3146284644F0E3
:1025F000C5F86571F8BD00BFED2400002D25000071
:102600000D25000070D20400437903B970470830EB
:1026100044F0C6BD437903B9704710B582B0044693
:1026200000F10801684643F077FFBDF90220BDF9CB
:102630000030002AB8BF0F321211A287BDF9042062
:10264000002BB8BF0F33002AB8BF0F321B115B42FB
:102650001211E387A4F8402002B010BD2DE9F0412B
:1026600082B000F10801684643F056FF60BBBDF838
:102670000000BDF90280BDF90470404204B240463A
:1026800047F057F80546204647F053F806463846C7
:1026900047F04FF8ADB283B29D42B6B20BD3B5420C
:1026A00001D29E4214D8B8F1000FB4BF032002201B
:1026B00002B0BDE8F0819E42F1D2002FCCBF0520D0
:1026C000042002B0BDE8F081092002B0BDE8F0812D
:1026D000002CD4BF0020012002B0BDE8F08100BF73
:1026E0002DE9F04782B0054600F10801684643F045
:1026F00013FF002840D1BDF902A0BDF80060BDF96C
:1027000004800446504647F014F8764236B2074635
:10271000304647F00EF88146404647F00AF8BFB20F
:1027200083B29F421FFA89F90BD34F4514D29945C2
:1027300012D9002E33DD6B6D012B19D0012300203F
:102740001FE09945F1D2B8F1000F0EDD6B6D052B3E
:102750000ED02046052314E0BAF1000F6B6D14DB98
:10276000022B05D0022300200BE0686D042811D154
:10277000002002B0BDE8F0876B6D092BF8D009236B
:1027800000206B6502B0BDE8F087032BF0D0032377
:102790000020F6E7B0FA80F040090423F1E76B6D02
:1027A000002BE5D000231846EBE700BF437903B9BF
:1027B000704730B500F1080583B0044600232A466F
:1027C000012101A8CDE9003343F02AFFDDED017AB4
:1027D000DFED076AF8EEE77A294687EEA67A6846C3
:1027E00084ED137A44F006FD009B636403B030BDB2
:1027F00000007A440020086008727047436C1B791F
:1028000003B10A60002070472DE9F041476C3B7925
:1028100096B00D4623B3194CDFF86480164604E0E9
:1028200047F0E2FC18B3444514D02C230DEB03020F
:1028300021463868FEF750F92C220DEB020168465C
:1028400047F04CF89DF80030FF2B6946304604F104
:102850002C04E5D100232B72022016B0BDE8F081D4
:102860000B7A002BF8D0002016B0BDE8F081089B51
:10287000286001222A726B60F5E700BF10400B0050
:10288000289016002DE9F042476C38791D4668B152
:10289000F02B0C460FD8D1E900613144386801F5BE
:1028A0003621FEF719F923682B442360069B1D602F
:1028B0000020BDE8F082D1E900314FEA5509194402
:1028C00038684B4601F536211646FEF705F9616872
:1028D000386809F5362306EB0902266819443144A5
:1028E0004B46FEF7F9F8DEE70022016002717047FF
:1028F00010B584B0102304466A4600684FF43421B2
:10290000FEF7EAF89DF80030AA2B03D000232371CC
:1029100004B010BD9DF80130522BF7D19DF80B305B
:10292000002BF3D19DF80C30A3F10103B3FA83F32C
:102930005B09ECE7037903B9704770B592B00446C0
:10294000684637F0C5F80A4D0A490B4A11940C2322
:10295000ADF802306846094B06924626CDE9035190
:102960008DF80060089337F0B7F812B070BD00BF63
:1029700009280000F527000085280000FD27000039
:1029800001230370704700BF00230370704700BF2E
:1029900001234370704700BF00234370704700BF9E
:1029A000416070478160704738B502780446551C15
:1029B000012025700A70487094F88903B42202FB44
:1029C0000040043046F08AFF94F8893394F88A2353
:1029D000032B9ABF0133DBB2002384F889337AB921
:1029E00094F88833032B9CBF5A1CD2B284F88823F6
:1029F0000123BFF35B8F84F88B33BFF35B8F38BD4C
:102A0000002384F88A33F3E710B591F88833B422B1
:102A100002FB03110446043146F060FF0123A3705A
:102A2000204610BD2DE9F0410D4605F5627E0431CA
:102A30004E4BAEEB010C4FEAAC0C03FB0CFC4FEA27
:102A4000AC03002BAEB0074616460C4629DD4FF40A
:102A5000347202FB03530433627820780AB1864251
:102A60002DD094F8B52094F8B4000AB1864231D044
:102A700094F8692194F868010AB1864257D094F815
:102A80001D2294F81C020AB1864253D004F5347416
:102A9000A342E1D1354BAEEB040C4FEAAC0C03FB87
:102AA0000CFCBCF1020F5AD0BCF1030F51D0BCF1A9
:102AB000010F06D1637822781BB1964201D1A64559
:102AC0000BD1B4220021384646F030FF38462EB0F4
:102AD000BDE8F081B434A645F3D005F535739C42CA
:102AE00095F8888329D001ABB4221846A11846F086
:102AF000F5FE94F8B5C0034694F8B400D4F86441E8
:102B0000B042DED9B42202FB085519462B798DF864
:102B1000040001331B1A38468DF805C02D948DF83A
:102B2000063046F0DBFE38462EB0BDE8F08104F5F5
:102B3000B474C4E704F50774C1E701AB1846B422C6
:102B400046F0CCFE95F805C0D5F8B4400346287988
:102B5000D6E7637822780BB19642B0D0B43463786C
:102B600022780BB19642AAD0B434A3E7A54FFAA4B9
:102B70002DE9F04101F1040C01F5627E0D46AEEB4A
:102B80000C034D499B1001FB03F18B10002BAEB0E1
:102B90000746164640F381804FF4347202FB03531C
:102BA00004336446627821780AB18E4229D094F8C1
:102BB000B52094F8B4100AB18E422DD094F8692152
:102BC00094F868110AB18E4252D094F81D2294F8FC
:102BD0001C120AB18E424ED004F53474A342E1D1E6
:102BE000354BAEEB0401891003FB01F102295CD0E7
:102BF000032954D0012906D1637822781BB196426B
:102C000001D1A6450BD1B4220021384646F08EFEF4
:102C100038462EB0BDE8F081B434A645F3D0A445C3
:102C200095F888832AD001AB1846A4F1B401B422E8
:102C300046F054FE14F8B3CC034614F8B40C54F820
:102C4000044CB042DFD2B42202FB085519462B795E
:102C50008DF8040001331B1A38468DF805C02D94F9
:102C60008DF8063046F03AFE38462EB0BDE8F081C9
:102C700004F5B474C5E704F50774C2E701AB184660
:102C8000B42205F5357146F029FE95F8D5C2D5F880
:102C90008443034695F8D402D3E76446A6E76378F5
:102CA00022780BB19642ACD0B434637822780BB161
:102CB0009642A6D0B4349FE7A54FFAA4BFF35B8F2A
:102CC00090F88B03BFF35B8F003818BF012070476B
:102CD00000F28B304FF00002BFF35B8FD0E84F3F24
:102CE000C0E8412F0029F9D1BFF35B8FD8B200387B
:102CF00018BF0120704700BF90F8B920437902B196
:102D0000013390F86D2102B1013390F8212202B114
:102D1000013390F8D52202B101331846704700BF45
:102D20002DE9F04F85B0DDE90E79DDF844B0DDF82E
:102D300048A0C76004460D46C0E90012C0E9049BE4
:102D40001E4690468360C0F818A05B461C3001F018
:102D5000A1FC5B464246294604F5E27000F092FC75
:102D600004F23C4B04F55D7000F09EF93146584684
:102D700000F0BAFA04F2DC484B4629463A46CDF850
:102D800000A004F58C6001F0CFF93A462946404690
:102D900000F0F0FB314604F5A26001F047F810990D
:102DA000164E04F2645001F06FFA3A46294604F2D6
:102DB000D45001F001FB124FDFF848C0C4F84CC6F4
:102DC0000023782540F21121C4F85836A4F84A3679
:102DD000A4F85A1684F85C3604F5CC60C4F8507632
:102DE000C4F8546684F8585602A9CDE902B801F037
:102DF0003FFB204605B0BDE8F08F00BF8EFE48FCCB
:102E00003A3B432380D0421930B5044683B010F0DA
:102E1000EBF80028FBD027F06DF927F08FF904F5C7
:102E20005D7000F035F904F23C4000F06BFA04F5F7
:102E3000A26000F0EFFF04F58C6001F069F904F581
:102E4000E27000F0A3FC04F2645001F045FA04F1D2
:102E50001C0001F07FFC002027F07CF904F5C9611B
:102E600000201AF0C5FE6D460C4827F02FF92946C0
:102E700094F8480600221AF049FE94F84836626831
:102E8000003B18BF0123936195E803006368186154
:102E9000998214F019FE03B030BD00BF78D204004F
:102EA00043681B7803B1704770B5B6B0044613F0A1
:102EB00069FD18B913F052FD054608B136B070BD72
:102EC000254E304627F002F9294603A80A2246F08B
:102ED0002DFD294606A8602246F028FD29461EA899
:102EE000602246F023FDBDF83030259623F4FF73B1
:102EF00023F0010343F4807343F0010304F24C62B6
:102F00000621ADF830303046802340F202268DF89D
:102F100018100B928DF83A30ADF80C6047F092F92A
:102F20009DF899308DF8980043F0010306A88DF8BC
:102F3000993013F0C7FC1EA813F0EAFC0194074A6D
:102F400094F84806009203AB294647F2305213F03A
:102F5000A3FB36B070BD00BF78D20400612F000023
:102F600070B503788CB004460D46112B0FD8DFE8FE
:102F700003F044120E0E0E0E0E0E0E210E0E280E33
:102F800009310E38C288B1F8D0359A4247D00026B0
:102F900030460CB070BD01F23C4000F0B5F905F2CE
:102FA000DC4000F029FB4FF6FF736868A5F84A364D
:102FB000FFF7EAFC2846FFF773FF002630460CB007
:102FC00070BD014605F2DC4000F0E8FA002630460C
:102FD0000CB070BD00891AF0A1FF002630460CB07D
:102FE00070BD01A9808812F091FE0DF10F001AF05A
:102FF00001F8012630460CB070BD4668002ED2D1D3
:103000004868FFF7BDFC2868062102F0ADFC238963
:10301000A5F84A3605F11C0001F0F4FBB8E7417A47
:1030200005F26450C1F3400101F062F90026AFE7F8
:10303000034600F5CC60B3F84A1601F021BA00BF90
:10304000B0F84A06704700BF10B5936882B01868A0
:1030500014461AF01BFCA0F52850243880B205282D
:1030600002D90E2002B010BD084B646853F820103E
:103070000191084647F0E6F8019982B2204625F012
:1030800019F8002818BF112002B010BDB4D20400F6
:1030900010B500F1A804204615F076F82046BDE8EA
:1030A000104015F03FB800BF38B5A82204460021F3
:1030B00046F03CFC1A491B4A1B4B2160A26123636A
:1030C0001A4A1B4D1B481C4920660223A1676260F7
:1030D000E2616263E2646266E26723822385A4F8A8
:1030E0004030A4F85830A4F87030A4F88830A460B8
:1030F0002462A4632465A466C4F88040A56404F136
:10310000A8002022002146F011FC0C4BC4F8B4406A
:10311000012284F8A820C4F8AC30204638BD00BF96
:10312000E4D20400DCD20400E0D204004930000004
:10313000D0D20400D4D20400D8D20400CCD20400EF
:103140002DE9F041976886B016460022044688466D
:10315000049257B302AD284602223146B847D6E959
:10316000027C95E803006A4604F1140382E8030038
:1031700093E8030085E8030092E8030083E8030076
:10318000D4E90732E76104930592C4F820C01BB16B
:103190000322294628469847064A074923464046BF
:1031A00016F0EAFB06B0BDE8F081DDF814C002AD10
:1031B000D7E700BF19320000E8D2040030B514464A
:1031C00083B01D4662B1124802F108011AF0F8FA04
:1031D00018B90123AB7363882B82002003B030BD84
:1031E00009880E29F9D1997B51B9DB69ADF8060040
:1031F0005BB12B6A05F114000DF106019847ECE76D
:10320000198A044A16F016FDE7E744F038F800BFC3
:10321000ECD204008132000030B51D4685B0144662
:103220003AB11548111D1AF0CBFA98B1002005B03B
:1032300030BD0B880E2BF9D12B7A9BB9EB69ADF819
:103240000E00BBB105F114002B6A0DF10E01984779
:103250000120ECE701232B7223886B816388AB810B
:1032600005B030BD0095054BAA89698916F008FCA8
:103270000120DCE744F003F8E8D20400BD3100008F
:1032800070B50E888AB005461C465EB1E369ADF89C
:103290001C502BB304F11400236A07A9984700209F
:1032A0000AB070BD07AB31465068092224F098FF80
:1032B0009DF822109DF821200A4BD3F804059DF8B3
:1032C00020300193CDE90221049000969DF81F3033
:1032D0009DF81E20BDF81C106068FEF717FFD5E7AB
:1032E00043F0CDFF00100140002210B4044C0460F4
:1032F00041605DF8044B02728273C261704700BF87
:10330000F8D20400704700BF002303728373704734
:1033100000B59A6A83B0ADF806004AB103F1200007
:10332000DA6A0DF106019047002003B05DF804FB56
:1033300043F0A5FF2DE9F041976886B016460022BC
:1033400004468846049257B302AD2846022231460D
:10335000B847D6E9027C95E803006A4604F12003E9
:1033600082E8030093E8030085E8030092E8030085
:1033700083E80300D4E90A32A76204930592C4F8F3
:103380002CC01BB10322294628469847064A074904
:103390002346404616F0F0FA06B0BDE8F081DDF8AD
:1033A00014C002ADD7E700BFB133000000D3040062
:1033B00030B51D4685B082B11548111D14461AF06E
:1033C000FFF910B1002005B030BD2388AB806388C1
:1033D000EB800123AB7505B030BD0A880E2AF1D110
:1033E0009A7D5AB9AA6AADF80E007AB105F12000AB
:1033F000EB6A0DF10E0198470120E4E70093EA889B
:10340000044BA98816F03CFB0120DCE743F037FFB2
:1034100000D304009134000070B584B00988089D81
:10342000044629B9A989914212D0002004B070BD88
:1034300095F83130002BF8D1AB6AADF80C000BB326
:1034400005F12000EB6A03A99847002004B070BD85
:103450000D48191D1E461AF0B3F90028E5D0EA8977
:10346000002AE2D13188094BE981012601952046E5
:1034700085F8316003AA00930223ADF80C6016F0C2
:1034800039FCD2E743F0FBFEFCD20400113300000C
:1034900070B5098884B015461C4681B10E290346D3
:1034A0002DD0A26AADF80E00002A54D0E36A04F1D0
:1034B00020000DF10E019847002004B070BD002AD5
:1034C000FAD005F10806254831461AF079F920B9F5
:1034D0006B882381002004B070BD214831461AF06A
:1034E0006FF9D8B11F4831461AF06AF9D8B96B881C
:1034F000A3812B882382012384F83030DCE7002A63
:10350000DFD194F83020FAB9A26AADF80C3012B3CA
:10351000E36A04F1200003A99847CDE76B88638133
:10352000002004B070BD104831461AF049F910B9B6
:103530006B886382C0E70D4831461AF041F90028D4
:10354000BAD16B88A382B7E70094094BE288A189BE
:1035500016F006FBB0E743F092FE00BF1CD3040058
:1035600020D30400FCD2040018D3040014D30400B8
:103570001934000010B4084C81610021C0E90041F9
:10358000C0E902115DF8044BC2610161818281755D
:1035900081620186704700BF2CD3040083890A89A9
:1035A0009A4200D0704770B504464868038A5A1C96
:1035B000672AAEB005D89A1E632A02D8DD1E2A46B5
:1035C00001E06322154600260DF14E0303218DF81C
:1035D00005602D9624F004FE2EAB2B44E06903F821
:1035E0006A6C01A92D96FFF7DFF9A069042102F0AA
:1035F000BBF92EB070BD00BF0023C0E90133C0E9A4
:103600000333838283750386704700BF70B52AF049
:103610008FFB816801B970BD8588C688044689B270
:103620000C3010F099FC31460246284616F0C6FBD5
:103630000023A36070BD00BF10B582B02AF078FBF4
:1036400004460023D0F8F000A4F89231C4E96533B1
:10365000C4E96733C4E93D33C4F8A431A4F8A83100
:103660001A46009303212AF025FB63680322DA60DF
:103670006068FFF791F92068082102B0BDE81040AA
:1036800002F072B9F0B583B00446384E3848009065
:1036900000254FF4E820C4E90012A360A06104F102
:1036A000F0032A46C4E90455C4E90755C4E93D5569
:1036B0002573A4F8EC5030464FF47A712AF0AEFA34
:1036C00004F586770823C4F8F000A4F808312946E9
:1036D0003846602246F02AF9264AC4F80C21042212
:1036E000A4F81C212449254BC4F824111822A4F85D
:1036F00034212348C4F83C0104F584720221A4F863
:103700004C11C4F85021C4F81031C4F82831C4F861
:1037100040312946C4F81441C4F82C41C4F844414E
:1037200004F5B670202246F001F94FF0010C154B5C
:103730001549C4F87031C4E96555C4E96755C4F842
:103740007871A4F89251C4F8A451A4F8A85184F84F
:103750006CC12A4600913046234642F210712AF08D
:103760005DFAC4F8AC01204603B0F0BD30D30400CC
:103770000D36000078D30400A0D30400B13C000053
:103780008CD3040064D304003936000010B500F572
:10379000B674204614F0F8FC2046BDE8104014F042
:1037A000C1BC00BF2DE9F04385B090F89231022BE7
:1037B00000AF04460E46154609D0032B00F0868064
:1037C000012B55D000201437BD46BDE8F0831268A8
:1037D000406892F801C013789178D27803EB0C23FB
:1037E00003EB014303EB0263C4F89C312A6892F8AF
:1037F00005C013799179D27903EB0C2303EB0143D4
:1038000003EB0263C4F8A0312B685D7A197A9A7AC7
:10381000DB7A01EB052101EB024101EB0361C4F806
:10382000A411FFF7BDF8A36900254BB105F5802170
:10383000A068FDF765F9A36905F58055AB42F5D899
:103840006D4BB4F88E511B683B8003211B0C38462E
:10385000BB7010F081FB29460246304616F0AEFAE6
:1038600001230020143784F89231BD46BDE8F0836F
:10387000D2F800C09CF809309CF8086006EB0326DB
:10388000B6B27500EB1DEE46DB08AEEBC3039D46FA
:1038900069465EB10D446346D87A9A7A02EB0022FB
:1038A00021F8022B8D4203F10203F5D105360CEB12
:1038B00046021CF81630527803EB0223A4F8A83114
:1038C00000201437F546BD46BDE8F083D0F89431AA
:1038D000027B0133C0F89431B5F80680002A49D143
:1038E000D4F8981160684144C4F89811FFF75AF869
:1038F00094F89321D4F89411B1FBF2F302FB131363
:10390000DBB9D4F89831D4F8A421934215D0180A21
:1039100011211A0E4FEA134C3970B8700521384640
:10392000B4F88E513A717B7087F803C010F014FB25
:1039300029460246304616F041FA237B002B3FF41D
:1039400041AF226A63699A427FF43CAF2B4BB4F8D3
:103950008E511B683B8003211B0C3846BB7010F056
:10396000FBFA29460246304616F028FA042384F86A
:10397000923127E7C069296804F124094844424686
:1039800045F0ACFFE3694344C82BE36124D023B185
:10399000216A62695818904202D0B5F806809FE704
:1039A0004A4601F58021A068FDF7F8F8D4E907132D
:1039B000D4E9052C0B4462452362EED2104B0FCBA9
:1039C00087E80F000CF57F31A0683A4601F57C715D
:1039D0001023FDF7E3F8E0E7216AA0684A4601F505
:1039E0008021FDF7DBF8D4E9071300220B44C4E97A
:1039F0000723B5F8068073E744D3040048D30400D6
:103A000054D304002DE9F047C3680746002B58D073
:103A10000024264600F11C094FF0010A00F11B08A2
:103A20009D1BC82D28BFC82538682B464A4606F579
:103A30008021FDF751F8BAF1000F25D0424608EB7E
:103A400005014FF6FF7412F8013F64BAA4B25C405E
:103A5000C4F303135C4023B283EA04335C0104F42F
:103A6000FF549BB28A4284EA0304ECD1FB682E44E3
:103A7000B3424FF0000AD3D8B7F8E400001BB0FA05
:103A800080F04009BDE8F087434608EB050213F8D3
:103A9000011F64BAA4B24C40C4F303114C4021B2DC
:103AA00081EA04314C0104F4FF5489B2934284EA60
:103AB0000104ECD1FB682E44B3424FF0000AAFD8AA
:103AC000DAE71C46D8E700BF70B512681378013BEF
:103AD00086B00446072B3BD8DFE803F043638E042F
:103AE000A03A3A3D94F89231042B31D104F1080008
:103AF0000391FFF787FF0399002800F0BC806A4A12
:103B0000636812680525022084F89251D860D4F8C1
:103B1000F850ADF81420120C8DF81620C5B9B4F881
:103B20008E31A4F8F4100322A4F8F630C4F8F8207B
:103B300005A904F1FC0045F0D1FED4F8F04029F0CD
:103B400035F9009502462B46204601212AF0B2F8AD
:103B5000002006B070BD537884F89331002006B081
:103B600070BD94F89251002DF2D15378042BEFD10F
:103B70000223606884F89231FEF70AFF636801222D
:103B8000DA6060684FF0FF31FEF70AFF606829468F
:103B9000FEF708FF6368DD612068072101F0E4FE9D
:103BA000D6E794F89251012DD2D15378002BCFD083
:103BB000D4F8F8608DF816504FF40473ADF8143053
:103BC000002EC5D1B4F88E31A4F8F6300322C4F823
:103BD000F820A4F8F41004F1FC0005A945F07EFEDD
:103BE000D4F8F04029F0E2F8009602463346204629
:103BF00029462AF05FF8ABE794F89231012BA7D160
:103C0000D4F8A401B4F8A81123731422032360612B
:103C1000A4F8EC10226184F8923199E794F892317B
:103C2000052B95D16068FEF7B7FE2068082101F0EA
:103C30009BFE0023C4E96533C4E96733C4E93D331F
:103C4000A4F89231C4F8A431A4F8A83100931A461C
:103C50000321D4F8F0002AF02DF863680322DA601B
:103C60006068FEF799FE2068082101F07DFE636818
:103C70000222DA606CE70D4A636810680322DA609A
:103C8000D4F8F850ADF81400000C8DF81600002D93
:103C90007FF45EAFB4F88E31A4F8F410C4F8F820C5
:103CA000A4F8F63044E700BF4CD3040050D304001E
:103CB0002DE9F0411C465B685B7882B007460D46F3
:103CC0001646002B3CD12949294804F5C673002229
:103CD00014F014FA2749264804F5C773002214F09B
:103CE0000DFA04F5C87324492148002214F006FA9D
:103CF000B4F88C31AB4218D0B4F88E31AB4209D055
:103D0000B4F89031AB4201D133782BB3002002B02C
:103D1000BDE8F0813378012BF8D17268394620462E
:103D200002B0BDE8F041FFF7CFBE3378012BEDD1F3
:103D300072683946204602B0BDE8F041FFF732BD57
:103D4000D4F8AC8129F032F80023024600934046B3
:103D5000012129F0AFFFB6E7706804F584710222F3
:103D600024F0A8F90028D1D01120D0E778D304009E
:103D700064D30400A0D304008CD3040030B51578BC
:103D8000012D8BB01C4603D01DB300200BB030BDFD
:103D900007AB50680021092224F022FA1C4B9DF841
:103DA0002210D3F804559DF821209DF82030206D75
:103DB00004950024CDE90221CDE900439DF81E20A1
:103DC0009DF81F30BDF81C10FEF7A0F920460BB07F
:103DD00030BD1B6D50681A88ADF81C209A788DF89C
:103DE0001E20DA788DF81F205A798DF820209A79D4
:103DF0008DF82120DB798DF82230092207A98DF872
:103E0000235024F057F9002818BF11200BB030BD03
:103E10000010014010B500F13004204614F0B4F950
:103E20002046BDE8104014F07DB900BF38B53022FF
:103E30000D460021044645F079FD0B490B4AA4606C
:103E40000A23C4E90012238204F130002022002159
:103E500045F06CFD064B25650122E46384F83020B3
:103E60006363204638BD00BFB8D304007D3D000029
:103E7000B4D304002DE9F0478046C2B009200C46B7
:103E800043F0FBF90546034609226068002124F04F
:103E9000A7F96F79EE7995F808A07B1F012B6DD9F2
:103EA000202F00F084806B788DF857304FF0000998
:103EB000721C1BAB092160688DF85590CDF80491F8
:103EC00024F08EF942AB9D190AF1010206F10901B5
:103ED0000DF19E03606805F89C9C24F081F942ABCB
:103EE00056449A4406F1090116AB052260680AF8A7
:103EF0006A9C24F075F906F10D010DF15D030322B2
:103F000060688DF85C9024F06BF906F10F0118AB36
:103F1000032260688DF85F9024F062F906F11201C7
:103F20000DF16303032260688DF8629024F058F964
:103F300006F114010DF16603032260688DF86590A7
:103F400024F04EF960688DF8689006F116010DF1C5
:103F50006903032224F044F98DF86B90152F00F2C9
:103F60009080DFE807F091978E949A8E8E1B1B1B32
:103F70001B8E1B8E8E1B1B1B1B8E1B1B052F00F00D
:103F80008F80D8F87030002283F854200521D8F8AB
:103F9000680001F0E9FC42B0BDE8F08706234193D8
:103FA00015A9D8F86C00FEF7FFFC0421EFE7514B90
:103FB00007CB0027B3F800C09D78CDF805004FF07F
:103FC00001094FF0A0631620ADF811C0CDF809101B
:103FD000CDF80D208DF81350CDF801308DF84870D4
:103FE0008DF8009043F049F90546034616226068B3
:103FF000092124F0F5F8697895F800E0D5F803C0B8
:10400000EB7A8DF8461006EB0902A97B6E7A6068A0
:10401000AC7A8DF806708DF80B708DF810708DF8F5
:1040200047E0EF7C95F80FE0CDF801C08DF8076010
:1040300095F810C02E7D8DF808408DF809306C7D04
:104040008DF80C1005AB1F218DF80DE08DF80EC01A
:104050008DF813408DF811708DF8126024F0C0F8BF
:10406000D8F874408DF84890694615A8492245F063
:1040700035FC15A9201D492245F030FC42B0BDE8B1
:10408000F087002341938BE70323419388E70123C3
:10409000419385E70423419382E7052341937FE71A
:1040A00000256068149505AB721C092124F098F86E
:1040B0000DEB06030AF101021D7560680DF1320374
:1040C00006F10901EA4424F08BF8D8F870408AF828
:1040D000325069460125542215A8149545F0FEFB7F
:1040E00015A92046542245F0F9FB84F8545039466E
:1040F0004DE700BFBCD304001178012901D0002096
:10410000704708B518461146FFF7B4FE002008BDF9
:1041100010B500F14804204614F036F82046BDE8FA
:10412000104013F0FFBF00BF2DE9F0410446884660
:104130001646002148221D46069F45F0F7FB12490E
:10414000124B2160082222821148A06104F17802FA
:1041500010212185E2626360E361A460246204F1BE
:1041600048002022002145F0E1FBC4E91B65094B12
:10417000C4F8688001226465676784F84820E364B6
:104180002046BDE8F08100BFCCD30400F940000018
:10419000E0D30400F4D3040030B583B00023044618
:1041A00001210DF107008DF807300FF0D5FE05460F
:1041B000A06E00F58460FEF743FF431E9BB24FF6EE
:1041C000FD72934204D8B4F878102A4615F0F6FD33
:1041D00003B030BD30B583B00223044601210DF198
:1041E00007008DF807300FF0B7FE0546A06E00F50A
:1041F0008460FEF725FF431E9BB24FF6FD7293428B
:1042000004D8B4F878102A4615F0D8FD03B030BDB4
:10421000B3F86C00884201D000207047F0B5184C0C
:104220002178BFF35B8FC90783B00BD55068154960
:10423000012223F03FFF10B1112003B0F0BD002098
:1042400003B0F0BD2046CDE9002342F0F6FF009A0E
:104250000028EBD0019B0B4D1968D1E90136C868E5
:104260003344D1E9047603443B442046097E334479
:1042700093FBF1F32B7042F0ECFF009AD6E700BFFE
:10428000D4050020D905002038B50546044645F878
:10429000041B48222846002145F048FB0B480C49E6
:1042A000E46004F16C030222C4E90101A282A3616B
:1042B00004F14C002022002145F038FB054BA56598
:1042C000012284F84C202365204638BD08D4040020
:1042D000114200000CD4040010B500F14C0420463B
:1042E00013F052FF2046BDE8104013F01BBF00BF83
:1042F00070B5154D2B78BFF35B8FDB0705D5BDE897
:104300007040124801210FF027BE0446284642F0B3
:1043100094FF0028F3D022680C49D0681669D2E9CE
:104320000134234403445469127E28463344234411
:1043300093FBF2F30B7042F08CFFBDE87040034832
:1043400001210FF009BE00BFD0050020D8050020D4
:1043500030B51C46B3F870308B42B1B002D00020AB
:1043600031B030BD1378012BF9D153681B681B782D
:10437000022B96BF0E4A0F4952F8231001910025D7
:1043800008468DF80D502F9545F05CFF01990246C7
:104390000DF1560045F0A2FA60682F9503A9FEF7CB
:1043A00003FB2068042101F0DFFA002031B030BDAA
:1043B00040D4040084DA040038B500F1080504464E
:1043C000C0E9001228464822002145F0AFFA0C4807
:1043D0000C49246104F170030422C4E90201228320
:1043E000E36104F150002022002145F09FFA064BC2
:1043F000E565012284F850206365204638BD00BF82
:104400004CD404005143000050D40400022A05D0CB
:10441000032A01D0012A05D0002070470B680360F1
:104420000020704701600020704700BF30B502686F
:10443000098814681346201D43F80C0B984285B078
:104440000FD06068084D0368084C1B680092CDE9E6
:1044500002456A469847029B1BB1694603220846FB
:10446000984705B030BD00BF2D4400000D4400004A
:10447000034603C91A1D82E803001846704700BFAF
:1044800030B5021D436802601C68094A094D246862
:1044900085B0CDE9022500906A461846A047029BE8
:1044A0001BB1694603220846984705B030BD00BFDE
:1044B0000D4400002D44000010B529F039FC42687D
:1044C00000230321044680F88C31C0F89431D16078
:1044D0004068FEF761FA20681221BDE8104001F043
:1044E00043BA00BF2DE9F04F0D46B1F90270B1F9A2
:1044F0000610C46A8F4287B080463DDCB5F90430AF
:1045000091464FF0000A04F1300BB5F900609E426D
:1045100011DD54E023B1E16AA0695A18824231D01A
:104520000AF1020ABAF5E13F26D8B5F9043001369E
:1045300036B2B34241DB39F8023B227C5BBAADF8BC
:104540000430002AECD0A06A0222584401A945F0A8
:10455000C5F9A36A0233F02BA362DBD194F82021C2
:1045600092B3E26A0AF1020A1344BAF5E13F4FF04E
:104570000002C4E90A23D8D9404634F03DFD07B013
:10458000BDE8F08F94F8200138B3237FE262012B5D
:10459000C6D1D4F824C0A3696345C1D2144B0FCB54
:1045A0000DF1080E8EE80F00216AE0686144724642
:1045B00010391023FCF7F2FAB2E7B5F9061001370B
:1045C0003FB28F42A1DDD7E7E26A216AE068114479
:1045D0005A46FCF7E3FAA36AC3E7226AE06811448B
:1045E0005A46FCF7DBFAD4E90A321A44CDE700BF99
:1045F00054D40400F0B5044600F12406C06985B027
:104600003044154645F06AF9E3692B44F02BE36129
:1046100007D023B1216AE0685A1882420BD005B056
:10462000F0BD94F8142102B3226A00211344C4E9B6
:10463000071305B0F0BD94F81401F8B1237C226291
:10464000012BECD1A569E368AB42E8D2104B676956
:104650000FCB6E463D4486E80F0020683246A5F138
:1046600010011023FCF79AFAD9E76569216A2068DE
:1046700032462944FCF792FAE369D5E76569206878
:1046800032462944FCF78AFAD4E907321A44D5E7BE
:1046900054D40400F0B50446002504F592764FF496
:1046A000E82083B0C4E90012C4E9023360622946FD
:1046B000C4E90555C4E90A5530462574256284F8D5
:1046C0002051482245F032F91C4A1D4BC4F82421E0
:1046D0001C49C4F83C1106201822A4F83401A4F89F
:1046E0004C21C4F82831C4F840312946C4F82C4183
:1046F000C4F8444104F5B670202245F017F90127AB
:1047000011481249C4F87001F023A4F88E31C4E9AD
:104710006455C4F8786184F88C51C4F89C5184F8CD
:104720006C712A460091234642F21071084829F024
:1047300075FAC4F89801204603B0F0BD78D404009F
:10474000054C00008CD4040064D40400B94400007B
:1047500030D3040010B500F5B674204613F014FDF4
:104760002046BDE8104013F0DDBC00BF2DE9F0414C
:104770000446B0F88E31436190F8205100224FF486
:10478000E1330120C4F89C21A36103224FF480236C
:1047900082B00E462074227723620DB109E0236AAD
:1047A000E068E918FCF7ACF9A36905F58055AB4260
:1047B000F5D834F0C5FB124BC768D0F82C80C36025
:1047C000C462054634F0BCFB29F0ECFD2AF002F887
:1047D00028462EF04FFA43F20103C5F82C80EF6013
:1047E000022101A8B4F8A041ADF804300FF0B4FBE9
:1047F00021460246304615F0E1FA02B0BDE8F081EC
:10480000E544000042680023032180F88C31C0F8A1
:104810009431D1604068FEF7BFB800BF2DE9F04782
:10482000C368002B54D000240746264600F1240913
:104830004FF0010A00F123089D1BC82D79693868E3
:1048400028BFC8252B4631444A46FCF745F9BAF142
:10485000000F20D0424608EB05014FF6FF7412F816
:10486000013F64BAA4B25C40C4F303135C4023B2BA
:1048700083EA04335C0104F4FF549BB28A4284EA65
:104880000304ECD1FB682E44B3424FF0000AD3D8A6
:104890002046BDE8F087434608EB050213F8011FE8
:1048A00064BAA4B24C40C4F303114C4021B281EA73
:1048B00004314C0104F4FF5489B2934284EA0104A8
:1048C000ECD1FB682E44B3424FF0000AB4D8DFE7C6
:1048D0001C462046BDE8F0872DE9F04115682B788D
:1048E000023B84B004460E462F2B4CD8DFE813F071
:1048F0006500BE00C6004B00D7004B004B004B00CC
:104900004B004B004B004B004B004B004B004B004F
:104910004B004B004B004B004B004B004B004B003F
:104920004B004B004B004B004B004B004B004B002F
:104930004B004B004B004B004B004B004B004B001F
:104940004B004B004B004B004B004B0000014F0055
:104950000823022103A88DF80D30B4F8A0810FF0D0
:10496000FBFA41460246304615F028FA636884F89F
:104970008C71C4F89471DD606068FEF70DF82068F2
:10498000122100F0F1FF002004B0BDE8F081B0F882
:10499000A05143F20113022103A8ADF80C300FF02F
:1049A000DBFA29460246304615F008FA00230020BB
:1049B000C4F89C3104B0BDE8F08190F88C71002FF0
:1049C000E1D195F802C06B78E8782979C4F8947140
:1049D00003EB0C2303EB004303EB0163C4F89031BA
:1049E000002BD0D0116801228DF80C204D79954212
:1049F00000F0C080022D00F0CB80032D00F0D980A4
:104A00006068FDF7C5FF63680422DA60D4F890118E
:104A10006068FDF7C5FF60680021FDF7C3FF2068EF
:104A2000112100F0A1FF94F820515DB9A3694BB1A9
:104A3000216AE0682944FCF763F8A36905F580550D
:104A4000AB42F5D862680123D360022103A88DF838
:104A50000D30B4F8A0510FF07FFA294602463046D7
:104A600015F0ACF9022384F88C318CE790F88C3186
:104A7000022B88D1032380F88C3184E790F88C31A5
:104A8000042B80D1AB786D780C3005EB0325FFF754
:104A9000C5FEADB2A84248D040F6011334E090F80C
:104AA0008C51032D7FF46FAF037C5BB3C26A8369C3
:104AB0009A4227D140F20163B0F8A071ADF80C30F2
:104AC000022103A80FF048FA39460246304615F095
:104AD00075F963680222DA600023D4F89801009324
:104AE0001A46294629F0E6F8042384F88C314AE76F
:104AF0003146FFF73BFE00230020C4F89C3104B090
:104B0000BDE8F08140F60103022103A8B4F8A051EA
:104B1000ADF80C300FF020FA29460246304615F069
:104B20004DF963680322DA602DE763680225DD60D2
:104B30006068FDF731FF40F20173294603A8ADF824
:104B40000C30B4F8A0510FF007FA2946024630465F
:104B500015F034F900252068122100F005FF0095BA
:104B6000D4F898012B462A46032129F0A3F884F8AB
:104B70008C5108E76368DD61D4F89011B4F88E2198
:104B800025744FF43423C4E905212777236237E7DE
:104B9000B3F5E82F1FD86368DF61D4F89001B4F84B
:104BA0008E1122744FF48023C4E90510227723620A
:104BB00026E748F220018B423FF6CAAE6168022325
:104BC000CB61D4F89001B4F88E112377C4E90510B5
:104BD0002274276214E70823294603A88DF80D30B4
:104BE000B4F8A0510FF0B8F929460246304615F046
:104BF000E5F8636884F88C710322C4F89471DA6074
:104C0000BAE600BF2DE9F041BEB01C4607460D468E
:104C1000164619F07DF96368A4F88E015B7863BBD2
:104C20003349344804F5D173002213F067FA04F5D0
:104C3000D07331492F48002213F060FAB4F8A23142
:104C4000AB4212D0B4F8A031AB4203D000203EB04A
:104C5000BDE8F0813378012BF8D1726839462046DF
:104C6000FFF73AFE3EB0BDE8F08135784DB3012D37
:104C70000FD00E203EB0BDE8F081D4F8988128F026
:104C800095F80023024600934046012129F012F8CE
:104C9000C6E794F88C31032BD8D17568237CEA8859
:104CA0002BB1296804F10C00FFF7A4FCEA88D4F8C2
:104CB000941160681144C4F89411FDF773FE00204C
:104CC000C5E7D4F89C11A06802AAF02301F5802161
:104CD000FBF702FF706802A9F02223F0EBF9D4F889
:104CE0009C312846F033C4F89C313EB0BDE8F081D9
:104CF00078D4040064D404008CD40400054800680F
:104D000080F3088862B661B6BFF34F8FBFF36F8F31
:104D100000DF00BF00000000064B19680868B0E81B
:104D2000F04F80F30988BFF36F8F4FF0000080F3DE
:104D3000118870473C3D0020EFF30980BFF36F8F6F
:104D4000144B1A681EF0100F08BF20ED108A20E9DE
:104D5000F04F10604DF8043D4FF0400080F3118893
:104D6000BFF34F8FBFF36F8F28F032FA4FF0000080
:104D700080F3118808BC19680868B0E8F04F1EF08D
:104D8000100F08BFB0EC108A80F30988BFF36F8F53
:104D9000704700BF3C3D002070B51D4B002582B020
:104DA0001D601B680193019B00F004F9194A1A4B1E
:104DB000D2F804451D601B680093009B064627F04F
:104DC000F5FF231A23F07F4222F0010223F07F45F2
:104DD000AAB96C1E6DB1002527F0FCFF013C631CD5
:104DE00045EA0005F8D125B10C4B4FF080525A60CE
:104DF00040BF304602B0BDE8704000F0DFB828F098
:104E000067FB0228E5D027F0E5FF0546EBE700BF8A
:104E100040110140001001400011014000ED00E090
:104E200038B5002025F0F8FE0A4B0B480B4901224B
:104E30001F24C3F808450225C3F80423E0240260B8
:104E40004FF400301A60C3F8445381F811430860EE
:104E500038BD00BF001001400810014000E100E033
:104E600070B5044684B072B6264ED6F8045528F0C4
:104E70000DFB00283ED0244B244A9C4294BF2B19A2
:104E8000EB180121C6F8081323F07F430021C6F870
:104E900040351160136801934FF48033019AC6F8CE
:104EA0000433BFF34F8F3CB1194B20BFD3F800112F
:104EB000D3F804210A43F8D0124B1448154A144C75
:104EC0004FF48031C3F8081300210160006803909B
:104ED000039811601268029201220299C3F8042318
:104EE000D3F80405401B4FF4003330F07F40C4F882
:104EF000803102D162B604B070BD27F063FF62B6A4
:104F000004B070BD00100140FDFFFF0040110140E2
:104F100000E100E00011014072B6FEE730B46FF02E
:104F20000203084C40F8081C4FF0807540F8202C14
:104F300040F8045C40F80C4C40F8243C30BC443849
:104F4000704700BF194F00000E4C08B5E02384F8ED
:104F50002230FFF765FF0C4B0C4A00211960D4F892
:104F6000883043F47003C4F88830536843F04043FA
:104F70005360236943F010032361FFF7BFFE72B64D
:104F8000FEE700BF00ED00E0DC05002030EF00E0B0
:104F900072B6024A1368013313607047DC050020C3
:104FA000034A1368013B136003B962B6704700BF40
:104FB000DC050020EFF3108072B6704780F3108894
:104FC000704700BF00B583B028F0B2FE90F8C03A39
:104FD0007BB9032200920122BFF35B8F80F8A92ADC
:104FE000BFF35B8F01AAD0F8A00A0193694627F0AE
:104FF00041F803B05DF804FB30B583B028F098FEAB
:10500000BFF35B8F90F8A93ABFF35B8F0BB103B08E
:1050100030BDBFF35B8F90F8A83ABFF35B8F0446B7
:10502000002BF4D0BFF35B8F90F8AA2ABFF35B8FFD
:1050300002F0FF05002AEAD1836AD3F8A830032BD7
:10504000E5D14069FDF74CFB0028E0D0BFF35B8F52
:10505000012284F8AA2ABFF35B8F2B460092D4F872
:10506000A00A019501AA694627F004F8CFE700BF1E
:105070002DE9F04786B01E46109B43610E9DDDF87A
:1050800048A0DDF84C80DDF85090119B4260C5606F
:10509000159F0F9A026100250446C0E9063AC0E94F
:1050A000088986600160876240F82C5F4FF4803386
:1050B0002063314684F8345084F83950C4F8E850FD
:1050C00084F8ED50C4F89C5184F8A151C4F85052B2
:1050D00084F85552C4F8045384F8095304F58360E6
:1050E000C4F8B853C4F8BC33C4F81054A4F814542A
:1050F000FDF7FAFB04F5707004F13401CDE90010FE
:105100004B4642462146CDE90367CDF808A004F599
:105110008460FDF705FE394604F68C20FCF76AFB37
:105120000223C4F8A45AC4F8A85A84F8AC5A84F8E4
:10513000C05A2A46C4F8983AC4F89C3A01210A2079
:1051400026F02EFDC4F8A00A204606B0BDE8F08780
:1051500000B583B000F52B63002201930092034653
:10516000084909484FF4FA7227F036FC012802D1A9
:1051700003B05DF804FB042003B05DF804EB28F0F5
:10518000E3BD00BFA0D4040059580000BFF35B8FFB
:1051900090F8A93ABFF35B8F03B1704730B5BFF306
:1051A0005B8F90F8A82ABFF35B8F83B0044602F0B0
:1051B000FF037AB96946D0F8A00A01930B2501AA2A
:1051C000009526F057FFD4F8A40A062102F07CFED1
:1051D00003B030BDBFF35B8F90F8AA2ABFF35B8F9B
:1051E00002F0FF03002AF3D1BFF35B8F012280F8A6
:1051F000AA2ABFF35B8F69460092D0F8A00A0193F8
:1052000001AA26F037FFE3E700B5012283B0BFF320
:105210005B8F80F8AA2ABFF35B8F00230092694658
:1052200001AAD0F8A00A019326F024FF03B05DF88C
:1052300004FB00BF2DE9F04F00F12C0597B00721CA
:1052400004462846FBF7ECFF2846FCF73DF8C34927
:10525000022028F0B5FD002840F0F882E068FCF755
:1052600009F96069FDF77AF92068FBF711FD04F68A
:1052700098276068FBF7DAF93846FCF7BBFF012195
:105280003846FCF7EFFFA068FBF7D0FB04F5836618
:10529000A068FBF7F5FB30460D96FDF729FB0D984E
:1052A000FDF748FB04F58466A06AFCF7FDFB304679
:1052B000FDF7AAFD3046FDF7F3FD2069FCF73CF849
:1052C0004FF0A048E069FCF72BFDA54BC8F8343738
:1052D00003224FF40043C8F83C27A249C8F8083518
:1052E000A14A0D2025F09EFDA04BC8F870379E4ABC
:1052F0009F491C2025F096FDA269236961681092E0
:10530000D4E90989226A0F936420E369D4F808B0CC
:10531000D4F814A011910D930E9241F09DFF0E9AB6
:105320000D9B079704F5707E04F1340C04F13007EF
:10533000CDE902B8019200930497DDE90F32CDE97F
:1053400009CE1199CDF818A0CDF81490089407460D
:1053500002F042FDD4F8A48AC4F8A47A3846B8F121
:10536000000F0BD0D8F8380010B103685B6898477D
:105370004046642141F05FFFD4F8A40A7D4FDFF876
:10538000109202F083FDA26A7B4BD2F8A410009326
:105390008902A7FB0131890923460022774828F0BA
:1053A0003DFCC4F8B40A804627F000FD4FF0000A27
:1053B000024653464046CDF800A0012128F07AFC71
:1053C0006F4B0093012223464FF420516D4828F083
:1053D00025FCC4F8B80A804627F0E8FC534602468C
:1053E000CDF800A04046012128F064FC664B0093F4
:1053F000012223464FF40071644828F00FFC04F6A4
:105400008C2AC4F8BC0A5046FCF70AFA40F6C418C5
:105410000E9704F6A827D4F8A00ABFF35B8F3B7859
:10542000BFF35B8F002B14BF42464FF47A720DF12D
:105430004B0126F0D3FEA8B39DF84B30013B112B56
:1054400030D8DFE813F0C200A7005B004900670115
:10545000450134010D0112002F00120087011200D6
:10546000090105017A007801A101BFF35B8F3B7848
:10547000BFF35B8FB3B9BFF35B8F94F8A92ABFF377
:105480005B8F02F0FF0B6AB9D4F8B43A0D9327F0A2
:105490008DFC0D9BCDF800B00246022118465B46FC
:1054A00028F008FC94F8AB3A3BB194F8AC3A002BE6
:1054B00000F07D81013B84F8AC3AD9F80415606AAC
:1054C000FCF79EFC4FF0A043D3F810359B04A2D408
:1054D0002846FBF7FFFE9EE7BFF35B8F3B78BFF3E9
:1054E0005B8F002B40F0928150462321FCF7C8F9D6
:1054F000D4F8A40A072102F0E7FCD3E70122BFF3A6
:105500005B8F002384F8A92ABFF35B8F1A46D4F877
:10551000B40A0093032128F0CDFB00230093D4F8B4
:10552000B80A4FF4F032042128F0C4FB0023D4F869
:10553000A40A194602F0C8FCB4E7A36AD4F8B40A76
:10554000D3F8A4200E9B9202A3FB023200239209FF
:105550000093042128F0AEFBA4E700BFE005002083
:1055600004000200D4D40400552201000C00030002
:10557000D0D40400D34D6210C54F0000A8D404005D
:10558000ED5A0000B4D40400F94F0000C4D4040064
:1055900000100140216913A8FBF712FF9DF8553058
:1055A000002B3FF47FAF9DF854300B2B00F0478168
:1055B000052B7FF477AFA36AD3F8A830012B7FF4D3
:1055C00071AF2046FFF720FE6CE73046FDF768FC20
:1055D000A068FBF755FA4FF0000B6068FBF7B0F9D5
:1055E000BFF35B8F87F800B0BFF35B8FBFF35B8FB8
:1055F00084F8AABA0121BFF35B8FD4F8A40A02F0A1
:1056000063FCD4F8B43A0D9327F0D0FB0D9BCDF892
:1056100000B00246012118465B4628F04BFBCDF84E
:1056200000B05B460421D4F8B80A4FF4205228F0A9
:1056300041FBA36AD3F8A81003297FF433AFCDF858
:1056400000B0D4F8BC0A5B465A4628F033FB29E781
:10565000012384F8C03A25E7002384F8C03A21E703
:105660004FF0000BD4F8B41A84F8C0BA0D9127F0AB
:105670009DFB0D99CDF800B002465B46084601211E
:1056800028F018FB236ADB68022B7FF40BAFBFF313
:105690004F8F7049CA6803F1BF6302F4E06203F1FF
:1056A00002131343CB60BFF34F8F00BFFDE701230D
:1056B00084F8C03ABFF35B8F3B78BFF35B8F002B5E
:1056C00040F08B80D4F8A40A092102F0FDFBE9E642
:1056D000BFF35B8F3B78BFF35B8FB3B9BFF35B8FD7
:1056E00094F8A92ABFF35B8F02F0FF0B6AB9D4F8D4
:1056F000B43A0D9327F05AFB0D9BCDF800B002464B
:10570000022118465B4628F0D5FA012384F8AB3A0B
:105710000523CFE6BFF35B8F3B78BFF35B8F002B96
:1057200068D150462321FCF7ABF8D4F8A40A08212D
:1057300002F0CAFBB6E6012384F8C03ABFF35B8FE0
:105740003B78BFF35B8FC3BBD4F8A40A0D2102F0F2
:10575000BBFBA7E6FAF7B2FD00283AD16068FBF779
:10576000C1F8A36AD3F8A830032B5CD0BFF35B8FDA
:1057700001233B700023BFF35B8FBFF35B8F84F883
:10578000A93ABFF35B8F8DE64FF0000BD4F8B41A43
:1057900084F8C0BA0D9127F009FB0D99CDF800B03F
:1057A00002465B460846012128F084FA7AE684F82E
:1057B000AB3A3046FDF73CFC7FE6BFF35B8F94F8D5
:1057C000AA3ABFF35B8F002BBED12046FFF71CFD2A
:1057D000BAE7A068FBF746F9C0E7BFF35B8F94F820
:1057E000AA3ABFF35B8F002B7FF46CAF2046FFF724
:1057F0000BFD67E7BFF35B8F94F8AA3ABFF35B8FAB
:10580000002B8ED12046FFF7FFFC8AE7BFF35B8FAA
:1058100094F8AA3ABFF35B8F002B7FF465AE204665
:10582000FFF7F2FC60E6D4F8BCBA27F0BFFA002319
:10583000024600935846012128F03CFA96E7A36AF5
:10584000D3F8A830022B7FF42DAEBAE628F07CFA0C
:1058500004E500BF00ED00E008B5FFF7EBFC00BF7A
:10586000BFF35B8F90F8A93ABFF35B8F03B170472A
:1058700030B5BFF35B8F90F8A82ABFF35B8F83B07E
:10588000044602F0FF037AB96946D0F8A00A0193F2
:10589000092501AA009526F0EDFBD4F8A40A0421FD
:1058A00002F012FB03B030BDBFF35B8F90F8AA2A61
:1058B000BFF35B8F02F0FF03002AF3D1826AD2F8B4
:1058C000A820002AEED0032AECD0022401AA6946BF
:1058D000D0F8A00A0193009426F0CCFBE2E700BFC9
:1058E000BFF35B8F90F8A93ABFF35B8F704700BF9F
:1058F000BFF35B8F90F8A93ABFF35B8F03B170479A
:1059000010B5BFF35B8F90F8A83ABFF35B8F82B0FE
:10591000044633B9D4F8A40A0A2102F0D5FA02B039
:1059200010BDBFF35B8F90F8AA2ABFF35B8F02F024
:10593000FF03002AEED1BFF35B8F012280F8AA2A71
:10594000BFF35B8F69460092D0F8A00A019301AAC9
:1059500026F090FBDEE700BFBFF35B8F90F8A93A1B
:10596000BFF35B8F704700BF00B585B0032901917D
:105970000AD0002303AA01A9D0F8A00A039326F0B5
:1059800079FB05B05DF804FB0123BFF35B8F80F862
:10599000A93ABFF35B8FECE7F0B506469FB04069CC
:1059A000FCF704FF756A77690FCD14AC0FC495E856
:1059B0000F00B56A84E80F0007F10C014C2268461D
:1059C00043F08CFF97E80E002846FBF7BDFFF06917
:1059D000FCF7F6F9BFF35B8F96F8A93ABFF35B8F3C
:1059E0000BB11FB0F0BDBFF35B8F96F8A83ABFF3C1
:1059F0005B8F002BF5D0BFF35B8F96F8AA3ABFF30D
:105A00005B8F002BEDD1336A1B78002B69D0F269D4
:105A1000D2E90130D2E9031403440B445069117EEA
:105A20002344034493FBF1F3002B3DDB092B3BDCC8
:105A300092F83C40002CD4D1BFF35B8F012586F84F
:105A4000AA5A1DAA2346BFF35B8F1CA9D6F8A00A49
:105A50001C951D9426F00EFB294606F69820FCF7AF
:105A600001FC232106F68C20FBF70AFFD6F8A40AD6
:105A70000B2102F029FAF269D2E90171D2E903504F
:105A800039445369294401441944137E91FBF3F1CD
:105A9000042909DC1DAAD6F8A00A1CA92346CDE9D1
:105AA0001C4426F0E7FAF26992F83C30002B98D1BA
:105AB00092F83D20002A94D0BFF35B8F012286F834
:105AC000AA2ABFF35B8F1CA91C92D6F8A00A1D93CB
:105AD0001DAA26F0CFFAD6F8A40A0A2102F0F4F99A
